8=FIX.4.4|9=79|35=A|34=2|49=ClientCompID|52=20250109-21:16:21.785|56=ServerCompID|98=0|108=30|10=025|
8=FIX.4.4|9=119|35=5|34=1|49=ServerCompID|52=20250109-21:16:21.831|56=ClientCompID|58=Invalid Logon message: Invalid MsgType, field=35|10=171|
8=FIX.4.4|9=79|35=A|34=4|49=ClientCompID|52=20250109-21:16:36.369|56=ServerCompID|98=0|108=30|10=031|
8=FIX.4.4|9=119|35=5|34=2|49=ServerCompID|52=20250109-21:16:36.376|56=ClientCompID|58=Invalid Logon message: Invalid MsgType, field=35|10=182|
8=FIX.4.4|9=79|35=A|34=3|49=ClientCompID|52=20250109-21:16:51.770|56=ServerCompID|98=0|108=30|10=023|
8=FIX.4.4|9=119|35=5|34=3|49=ServerCompID|52=20250109-21:16:51.771|56=ClientCompID|58=Invalid Logon message: Invalid MsgType, field=35|10=179|
8=FIX.4.4|9=79|35=A|34=4|49=ClientCompID|52=20250109-21:17:21.771|56=ServerCompID|98=0|108=30|10=023|
8=FIX.4.4|9=119|35=5|34=4|49=ServerCompID|52=20250109-21:17:21.778|56=ClientCompID|58=Invalid Logon message: Invalid MsgType, field=35|10=185|
8=FIX.4.4|9=79|35=A|34=5|49=ClientCompID|52=20250109-21:17:51.770|56=ServerCompID|98=0|108=30|10=026|
8=FIX.4.4|9=119|35=5|34=5|49=ServerCompID|52=20250109-21:17:51.779|56=ClientCompID|58=Invalid Logon message: Invalid MsgType, field=35|10=190|
8=FIX.4.4|9=79|35=A|34=6|49=ClientCompID|52=20250109-21:18:21.769|56=ServerCompID|98=0|108=30|10=033|
8=FIX.4.4|9=119|35=5|34=6|49=ServerCompID|52=20250109-21:18:21.774|56=ClientCompID|58=Invalid Logon message: Invalid MsgType, field=35|10=184|
8=FIX.4.4|9=79|35=A|34=7|49=ClientCompID|52=20250109-21:18:51.768|56=ServerCompID|98=0|108=30|10=036|
8=FIX.4.4|9=119|35=5|34=7|49=ServerCompID|52=20250109-21:18:51.775|56=ClientCompID|58=Invalid Logon message: Invalid MsgType, field=35|10=189|
