8=FIX.4.4|9=106|35=D|34=1|49=ClientCompID|52=20250109-20:33:53.203|56=ServerCompID|11=12345|32=100|44=150.25|54=1|55=AAPL|10=095|