8=FIX.4.4|9=106|35=D|34=1|49=ClientCompID|52=20250109-20:33:53.203|56=ServerCompID|11=12345|32=100|44=150.25|54=1|55=AAPL|10=095|8=FIX.4.4|9=79|35=A|34=2|49=ClientCompID|52=20250109-21:16:21.785|56=ServerCompID|98=0|108=30|10=025|8=FIX.4.4|9=79|35=A|34=3|49=ClientCompID|52=20250109-21:16:51.770|56=ServerCompID|98=0|108=30|10=023|8=FIX.4.4|9=79|35=A|34=4|49=ClientCompID|52=20250109-21:17:21.771|56=ServerCompID|98=0|108=30|10=023|8=FIX.4.4|9=79|35=A|34=5|49=ClientCompID|52=20250109-21:17:51.770|56=ServerCompID|98=0|108=30|10=026|8=FIX.4.4|9=79|35=A|34=6|49=ClientCompID|52=20250109-21:18:21.769|56=ServerCompID|98=0|108=30|10=033|8=FIX.4.4|9=79|35=A|34=7|49=ClientCompID|52=20250109-21:18:51.768|56=ServerCompID|98=0|108=30|10=036|